{
  "address": "0xF74919D716c51A89A325820B9290C7277ECDB9dd",
  "abi": [
    {
      "inputs": [
        {
          "internalType": "uint256",
          "name": "initialSupply",
          "type": "uint256"
        }
      ],
      "stateMutability": "nonpayable",
      "type": "constructor"
    },
    {
      "anonymous": false,
      "inputs": [
        {
          "indexed": true,
          "internalType": "address",
          "name": "owner",
          "type": "address"
        },
        {
          "indexed": true,
          "internalType": "address",
          "name": "spender",
          "type": "address"
        },
        {
          "indexed": false,
          "internalType": "uint256",
          "name": "value",
          "type": "uint256"
        }
      ],
      "name": "Approval",
      "type": "event"
    },
    {
      "anonymous": false,
      "inputs": [
        {
          "indexed": true,
          "internalType": "address",
          "name": "from",
          "type": "address"
        },
        {
          "indexed": true,
          "internalType": "address",
          "name": "to",
          "type": "address"
        },
        {
          "indexed": false,
          "internalType": "uint256",
          "name": "value",
          "type": "uint256"
        }
      ],
      "name": "Transfer",
      "type": "event"
    },
    {
      "inputs": [
        {
          "internalType": "address",
          "name": "owner",
          "type": "address"
        },
        {
          "internalType": "address",
          "name": "spender",
          "type": "address"
        }
      ],
      "name": "allowance",
      "outputs": [
        {
          "internalType": "uint256",
          "name": "",
          "type": "uint256"
        }
      ],
      "stateMutability": "view",
      "type": "function"
    },
    {
      "inputs": [
        {
          "internalType": "address",
          "name": "spender",
          "type": "address"
        },
        {
          "internalType": "uint256",
          "name": "amount",
          "type": "uint256"
        }
      ],
      "name": "approve",
      "outputs": [
        {
          "internalType": "bool",
          "name": "",
          "type": "bool"
        }
      ],
      "stateMutability": "nonpayable",
      "type": "function"
    },
    {
      "inputs": [
        {
          "internalType": "address",
          "name": "account",
          "type": "address"
        }
      ],
      "name": "balanceOf",
      "outputs": [
        {
          "internalType": "uint256",
          "name": "",
          "type": "uint256"
        }
      ],
      "stateMutability": "view",
      "type": "function"
    },
    {
      "inputs": [
        {
          "internalType": "address",
          "name": "to",
          "type": "address"
        },
        {
          "internalType": "uint256",
          "name": "amount",
          "type": "uint256"
        }
      ],
      "name": "burn",
      "outputs": [],
      "stateMutability": "nonpayable",
      "type": "function"
    },
    {
      "inputs": [],
      "name": "decimals",
      "outputs": [
        {
          "internalType": "uint8",
          "name": "",
          "type": "uint8"
        }
      ],
      "stateMutability": "view",
      "type": "function"
    },
    {
      "inputs": [
        {
          "internalType": "address",
          "name": "spender",
          "type": "address"
        },
        {
          "internalType": "uint256",
          "name": "subtractedValue",
          "type": "uint256"
        }
      ],
      "name": "decreaseAllowance",
      "outputs": [
        {
          "internalType": "bool",
          "name": "",
          "type": "bool"
        }
      ],
      "stateMutability": "nonpayable",
      "type": "function"
    },
    {
      "inputs": [
        {
          "internalType": "address",
          "name": "spender",
          "type": "address"
        },
        {
          "internalType": "uint256",
          "name": "addedValue",
          "type": "uint256"
        }
      ],
      "name": "increaseAllowance",
      "outputs": [
        {
          "internalType": "bool",
          "name": "",
          "type": "bool"
        }
      ],
      "stateMutability": "nonpayable",
      "type": "function"
    },
    {
      "inputs": [
        {
          "internalType": "address",
          "name": "to",
          "type": "address"
        },
        {
          "internalType": "uint256",
          "name": "amount",
          "type": "uint256"
        }
      ],
      "name": "mint",
      "outputs": [],
      "stateMutability": "nonpayable",
      "type": "function"
    },
    {
      "inputs": [],
      "name": "name",
      "outputs": [
        {
          "internalType": "string",
          "name": "",
          "type": "string"
        }
      ],
      "stateMutability": "view",
      "type": "function"
    },
    {
      "inputs": [],
      "name": "showbalance",
      "outputs": [
        {
          "internalType": "uint256",
          "name": "",
          "type": "uint256"
        }
      ],
      "stateMutability": "nonpayable",
      "type": "function"
    },
    {
      "inputs": [],
      "name": "symbol",
      "outputs": [
        {
          "internalType": "string",
          "name": "",
          "type": "string"
        }
      ],
      "stateMutability": "view",
      "type": "function"
    },
    {
      "inputs": [],
      "name": "totalSupply",
      "outputs": [
        {
          "internalType": "uint256",
          "name": "",
          "type": "uint256"
        }
      ],
      "stateMutability": "view",
      "type": "function"
    },
    {
      "inputs": [
        {
          "internalType": "address",
          "name": "to",
          "type": "address"
        },
        {
          "internalType": "uint256",
          "name": "amount",
          "type": "uint256"
        }
      ],
      "name": "transfer",
      "outputs": [
        {
          "internalType": "bool",
          "name": "",
          "type": "bool"
        }
      ],
      "stateMutability": "nonpayable",
      "type": "function"
    },
    {
      "inputs": [
        {
          "internalType": "address",
          "name": "from",
          "type": "address"
        },
        {
          "internalType": "address",
          "name": "to",
          "type": "address"
        },
        {
          "internalType": "uint256",
          "name": "amount",
          "type": "uint256"
        }
      ],
      "name": "transferFrom",
      "outputs": [
        {
          "internalType": "bool",
          "name": "",
          "type": "bool"
        }
      ],
      "stateMutability": "nonpayable",
      "type": "function"
    }
  ],
  "transactionHash": "0xc41d769a8751d587c7c5462fb4b3b1f2b76b8cc15ca07a67d70a15a06785edbe",
  "args": [
    100
  ],
  "numDeployments": 1,
  "solcInputHash": "8fc62930e5f90931056d8d56ca8d3a07",
  "bytecode": "0x60806040523480156200001157600080fd5b506040516200204338038062002043833981810160405281019062000037919062000425565b6040518060400160405280600481526020017f476f6c64000000000000000000000000000000000000000000000000000000008152506040518060400160405280600381526020017f474c4400000000000000000000000000000000000000000000000000000000008152508160039080519060200190620000bb9291906200035e565b508060049080519060200190620000d49291906200035e565b505050620000f733600483620000eb91906200053c565b620001db60201b60201c565b6200012b7370997970c51812dc3a010c7d01b50e0d17dc79c86004836200011f91906200053c565b620001db60201b60201c565b6200015f733c44cdddb6a900fa2b585dd299e03d12fa4293bc6004836200015391906200053c565b620001db60201b60201c565b620001937390f79bf6eb2c4f870365e785982e1f101e93b9066004836200018791906200053c565b620001db60201b60201c565b33600660006101000a81548173ffffffffffffffffffffffffffffffffffffffff021916908373ffffffffffffffffffffffffffffffffffffffff1602179055505062000689565b600073ffffffffffffffffffffffffffffffffffffffff168273ffffffffffffffffffffffffffffffffffffffff1614156200024e576040517f08c379a000000000000000000000000000000000000000000000000000000000815260040162000245906200048f565b60405180910390fd5b62000262600083836200035460201b60201c565b8060026000828254620002769190620004df565b92505081905550806000808473ffffffffffffffffffffffffffffffffffffffff1673ffffffffffffffffffffffffffffffffffffffff1681526020019081526020016000206000828254620002cd9190620004df565b925050819055508173ffffffffffffffffffffffffffffffffffffffff16600073ffffffffffffffffffffffffffffffffffffffff167fddf252ad1be2c89b69c2b068fc378daa952ba7f163c4a11628f55a4df523b3ef83604051620003349190620004b1565b60405180910390a362000350600083836200035960201b60201c565b5050565b505050565b505050565b8280546200036c906200057e565b90600052602060002090601f016020900481019282620003905760008555620003dc565b82601f10620003ab57805160ff1916838001178555620003dc565b82800160010185558215620003dc579182015b82811115620003db578251825591602001919060010190620003be565b5b509050620003eb9190620003ef565b5090565b5b808211156200040a576000816000905550600101620003f0565b5090565b6000815190506200041f816200066f565b92915050565b6000602082840312156200043e576200043d62000641565b5b60006200044e848285016200040e565b91505092915050565b600062000466601f83620004ce565b9150620004738262000646565b602082019050919050565b620004898162000574565b82525050565b60006020820190508181036000830152620004aa8162000457565b9050919050565b6000602082019050620004c860008301846200047e565b92915050565b600082825260208201905092915050565b6000620004ec8262000574565b9150620004f98362000574565b9250827fffffffffffffffffffffffffffffffffffffffffffffffffffffffffffffffff03821115620005315762000530620005b4565b5b828201905092915050565b6000620005498262000574565b9150620005568362000574565b925082620005695762000568620005e3565b5b828204905092915050565b6000819050919050565b600060028204905060018216806200059757607f821691505b60208210811415620005ae57620005ad62000612565b5b50919050565b7f4e487b7100000000000000000000000000000000000000000000000000000000600052601160045260246000fd5b7f4e487b7100000000000000000000000000000000000000000000000000000000600052601260045260246000fd5b7f4e487b7100000000000000000000000000000000000000000000000000000000600052602260045260246000fd5b600080fd5b7f45524332303a206d696e7420746f20746865207a65726f206164647265737300600082015250565b6200067a8162000574565b81146200068657600080fd5b50565b6119aa80620006996000396000f3fe608060405234801561001057600080fd5b50600436106100ea5760003560e01c806370a082311161008c578063a457c2d711610066578063a457c2d71461025f578063a9059cbb1461028f578063dd62ed3e146102bf578063e8e37354146102ef576100ea565b806370a08231146101f557806395d89b41146102255780639dc29fac14610243576100ea565b806323b872dd116100c857806323b872dd1461015b578063313ce5671461018b57806339509351146101a957806340c10f19146101d9576100ea565b806306fdde03146100ef578063095ea7b31461010d57806318160ddd1461013d575b600080fd5b6100f761030d565b60405161010491906112c7565b60405180910390f35b61012760048036038101906101229190611085565b61039f565b60405161013491906112ac565b60405180910390f35b6101456103c2565b6040516101529190611449565b60405180910390f35b61017560048036038101906101709190611032565b6103cc565b60405161018291906112ac565b60405180910390f35b6101936103fb565b6040516101a09190611464565b60405180910390f35b6101c360048036038101906101be9190611085565b610404565b6040516101d091906112ac565b60405180910390f35b6101f360048036038101906101ee9190611085565b61043b565b005b61020f600480360381019061020a9190610fc5565b6104d9565b60405161021c9190611449565b60405180910390f35b61022d610521565b60405161023a91906112c7565b60405180910390f35b61025d60048036038101906102589190611085565b6105b3565b005b61027960048036038101906102749190611085565b610651565b60405161028691906112ac565b60405180910390f35b6102a960048036038101906102a49190611085565b6106c8565b6040516102b691906112ac565b60405180910390f35b6102d960048036038101906102d49190610ff2565b6106eb565b6040516102e69190611449565b60405180910390f35b6102f7610772565b6040516103049190611449565b60405180910390f35b60606003805461031c906115ad565b80601f0160208091040260200160405190810160405280929190818152602001828054610348906115ad565b80156103955780601f1061036a57610100808354040283529160200191610395565b820191906000526020600020905b81548152906001019060200180831161037857829003601f168201915b5050505050905090565b6000806103aa61077a565b90506103b7818585610782565b600191505092915050565b6000600254905090565b6000806103d761077a565b90506103e485828561094d565b6103ef8585856109d9565b60019150509392505050565b60006012905090565b60008061040f61077a565b905061043081858561042185896106eb565b61042b919061149b565b610782565b600191505092915050565b600660009054906101000a900473ffffffffffffffffffffffffffffffffffffffff1673ffffffffffffffffffffffffffffffffffffffff163373ffffffffffffffffffffffffffffffffffffffff16146104cb576040517f08c379a00000000000000000000000000000000000000000000000000000000081526004016104c2906113e9565b60405180910390fd5b6104d58282610c5a565b5050565b60008060008373ffffffffffffffffffffffffffffffffffffffff1673ffffffffffffffffffffffffffffffffffffffff168152602001908152602001600020549050919050565b606060048054610530906115ad565b80601f016020809104026020016040519081016040528092919081815260200182805461055c906115ad565b80156105a95780601f1061057e576101008083540402835291602001916105a9565b820191906000526020600020905b81548152906001019060200180831161058c57829003601f168201915b5050505050905090565b600660009054906101000a900473ffffffffffffffffffffffffffffffffffffffff1673ffffffffffffffffffffffffffffffffffffffff163373ffffffffffffffffffffffffffffffffffffffff1614610643576040517f08c379a000000000000000000000000000000000000000000000000000000000815260040161063a906113e9565b60405180910390fd5b61064d8282610dba565b5050565b60008061065c61077a565b9050600061066a82866106eb565b9050838110156106af576040517f08c379a00000000000000000000000000000000000000000000000000000000081526004016106a690611409565b60405180910390fd5b6106bc8286868403610782565b60019250505092915050565b6000806106d361077a565b90506106e08185856109d9565b600191505092915050565b6000600160008473ffffffffffffffffffffffffffffffffffffffff1673ffffffffffffffffffffffffffffffffffffffff16815260200190815260200160002060008373ffffffffffffffffffffffffffffffffffffffff1673ffffffffffffffffffffffffffffffffffffffff16815260200190815260200160002054905092915050565b600047905090565b600033905090565b600073ffffffffffffffffffffffffffffffffffffffff168373ffffffffffffffffffffffffffffffffffffffff1614156107f2576040517f08c379a00000000000000000000000000000000000000000000000000000000081526004016107e9906113c9565b60405180910390fd5b600073ffffffffffffffffffffffffffffffffffffffff168273ffffffffffffffffffffffffffffffffffffffff161415610862576040517f08c379a000000000000000000000000000000000000000000000000000000000815260040161085990611329565b60405180910390fd5b80600160008573ffffffffffffffffffffffffffffffffffffffff1673ffffffffffffffffffffffffffffffffffffffff16815260200190815260200160002060008473ffffffffffffffffffffffffffffffffffffffff1673ffffffffffffffffffffffffffffffffffffffff168152602001908152602001600020819055508173ffffffffffffffffffffffffffffffffffffffff168373ffffffffffffffffffffffffffffffffffffffff167f8c5be1e5ebec7d5bd14f71427d1e84f3dd0314c0f7b2291e5b200ac8c7c3b925836040516109409190611449565b60405180910390a3505050565b600061095984846106eb565b90507fffffffffffffffffffffffffffffffffffffffffffffffffffffffffffffffff81146109d357818110156109c5576040517f08c379a00000000000000000000000000000000000000000000000000000000081526004016109bc90611349565b60405180910390fd5b6109d28484848403610782565b5b50505050565b600073ffffffffffffffffffffffffffffffffffffffff168373ffffffffffffffffffffffffffffffffffffffff161415610a49576040517f08c379a0000000000000000000000000000000000000000000000000000000008152600401610a40906113a9565b60405180910390fd5b600073ffffffffffffffffffffffffffffffffffffffff168273ffffffffffffffffffffffffffffffffffffffff161415610ab9576040517f08c379a0000000000000000000000000000000000000000000000000000000008152600401610ab0906112e9565b60405180910390fd5b610ac4838383610f91565b60008060008573ffffffffffffffffffffffffffffffffffffffff1673ffffffffffffffffffffffffffffffffffffffff16815260200190815260200160002054905081811015610b4a576040517f08c379a0000000000000000000000000000000000000000000000000000000008152600401610b4190611369565b60405180910390fd5b8181036000808673ffffffffffffffffffffffffffffffffffffffff1673ffffffffffffffffffffffffffffffffffffffff16815260200190815260200160002081905550816000808573ffffffffffffffffffffffffffffffffffffffff1673ffffffffffffffffffffffffffffffffffffffff1681526020019081526020016000206000828254610bdd919061149b565b925050819055508273ffffffffffffffffffffffffffffffffffffffff168473ffffffffffffffffffffffffffffffffffffffff167fddf252ad1be2c89b69c2b068fc378daa952ba7f163c4a11628f55a4df523b3ef84604051610c419190611449565b60405180910390a3610c54848484610f96565b50505050565b600073ffffffffffffffffffffffffffffffffffffffff168273ffffffffffffffffffffffffffffffffffffffff161415610cca576040517f08c379a0000000000000000000000000000000000000000000000000000000008152600401610cc190611429565b60405180910390fd5b610cd660008383610f91565b8060026000828254610ce8919061149b565b92505081905550806000808473ffffffffffffffffffffffffffffffffffffffff1673ffffffffffffffffffffffffffffffffffffffff1681526020019081526020016000206000828254610d3d919061149b565b925050819055508173ffffffffffffffffffffffffffffffffffffffff16600073ffffffffffffffffffffffffffffffffffffffff167fddf252ad1be2c89b69c2b068fc378daa952ba7f163c4a11628f55a4df523b3ef83604051610da29190611449565b60405180910390a3610db660008383610f96565b5050565b600073ffffffffffffffffffffffffffffffffffffffff168273ffffffffffffffffffffffffffffffffffffffff161415610e2a576040517f08c379a0000000000000000000000000000000000000000000000000000000008152600401610e2190611389565b60405180910390fd5b610e3682600083610f91565b60008060008473ffffffffffffffffffffffffffffffffffffffff1673ffffffffffffffffffffffffffffffffffffffff16815260200190815260200160002054905081811015610ebc576040517f08c379a0000000000000000000000000000000000000000000000000000000008152600401610eb390611309565b60405180910390fd5b8181036000808573ffffffffffffffffffffffffffffffffffffffff1673ffffffffffffffffffffffffffffffffffffffff168152602001908152602001600020819055508160026000828254610f1391906114f1565b92505081905550600073ffffffffffffffffffffffffffffffffffffffff168373ffffffffffffffffffffffffffffffffffffffff167fddf252ad1be2c89b69c2b068fc378daa952ba7f163c4a11628f55a4df523b3ef84604051610f789190611449565b60405180910390a3610f8c83600084610f96565b505050565b505050565b505050565b600081359050610faa81611946565b92915050565b600081359050610fbf8161195d565b92915050565b600060208284031215610fdb57610fda61163d565b5b6000610fe984828501610f9b565b91505092915050565b600080604083850312156110095761100861163d565b5b600061101785828601610f9b565b925050602061102885828601610f9b565b9150509250929050565b60008060006060848603121561104b5761104a61163d565b5b600061105986828701610f9b565b935050602061106a86828701610f9b565b925050604061107b86828701610fb0565b9150509250925092565b6000806040838503121561109c5761109b61163d565b5b60006110aa85828601610f9b565b92505060206110bb85828601610fb0565b9150509250929050565b6110ce81611537565b82525050565b60006110df8261147f565b6110e9818561148a565b93506110f981856020860161157a565b61110281611642565b840191505092915050565b600061111a60238361148a565b915061112582611653565b604082019050919050565b600061113d60228361148a565b9150611148826116a2565b604082019050919050565b600061116060228361148a565b915061116b826116f1565b604082019050919050565b6000611183601d8361148a565b915061118e82611740565b602082019050919050565b60006111a660268361148a565b91506111b182611769565b604082019050919050565b60006111c960218361148a565b91506111d4826117b8565b604082019050919050565b60006111ec60258361148a565b91506111f782611807565b604082019050919050565b600061120f60248361148a565b915061121a82611856565b604082019050919050565b600061123260148361148a565b915061123d826118a5565b602082019050919050565b600061125560258361148a565b9150611260826118ce565b604082019050919050565b6000611278601f8361148a565b91506112838261191d565b602082019050919050565b61129781611563565b82525050565b6112a68161156d565b82525050565b60006020820190506112c160008301846110c5565b92915050565b600060208201905081810360008301526112e181846110d4565b905092915050565b600060208201905081810360008301526113028161110d565b9050919050565b6000602082019050818103600083015261132281611130565b9050919050565b6000602082019050818103600083015261134281611153565b9050919050565b6000602082019050818103600083015261136281611176565b9050919050565b6000602082019050818103600083015261138281611199565b9050919050565b600060208201905081810360008301526113a2816111bc565b9050919050565b600060208201905081810360008301526113c2816111df565b9050919050565b600060208201905081810360008301526113e281611202565b9050919050565b6000602082019050818103600083015261140281611225565b9050919050565b6000602082019050818103600083015261142281611248565b9050919050565b600060208201905081810360008301526114428161126b565b9050919050565b600060208201905061145e600083018461128e565b92915050565b6000602082019050611479600083018461129d565b92915050565b600081519050919050565b600082825260208201905092915050565b60006114a682611563565b91506114b183611563565b9250827fffffffffffffffffffffffffffffffffffffffffffffffffffffffffffffffff038211156114e6576114e56115df565b5b828201905092915050565b60006114fc82611563565b915061150783611563565b92508282101561151a576115196115df565b5b828203905092915050565b600061153082611543565b9050919050565b60008115159050919050565b600073ffffffffffffffffffffffffffffffffffffffff82169050919050565b6000819050919050565b600060ff82169050919050565b60005b8381101561159857808201518184015260208101905061157d565b838111156115a7576000848401525b50505050565b600060028204905060018216806115c557607f821691505b602082108114156115d9576115d861160e565b5b50919050565b7f4e487b7100000000000000000000000000000000000000000000000000000000600052601160045260246000fd5b7f4e487b7100000000000000000000000000000000000000000000000000000000600052602260045260246000fd5b600080fd5b6000601f19601f8301169050919050565b7f45524332303a207472616e7366657220746f20746865207a65726f206164647260008201527f6573730000000000000000000000000000000000000000000000000000000000602082015250565b7f45524332303a206275726e20616d6f756e7420657863656564732062616c616e60008201527f6365000000000000000000000000000000000000000000000000000000000000602082015250565b7f45524332303a20617070726f766520746f20746865207a65726f20616464726560008201527f7373000000000000000000000000000000000000000000000000000000000000602082015250565b7f45524332303a20696e73756666696369656e7420616c6c6f77616e6365000000600082015250565b7f45524332303a207472616e7366657220616d6f756e742065786365656473206260008201527f616c616e63650000000000000000000000000000000000000000000000000000602082015250565b7f45524332303a206275726e2066726f6d20746865207a65726f2061646472657360008201527f7300000000000000000000000000000000000000000000000000000000000000602082015250565b7f45524332303a207472616e736665722066726f6d20746865207a65726f20616460008201527f6472657373000000000000000000000000000000000000000000000000000000602082015250565b7f45524332303a20617070726f76652066726f6d20746865207a65726f2061646460008201527f7265737300000000000000000000000000000000000000000000000000000000602082015250565b7f4f6e6c79206f776e65722063616e20646f206974000000000000000000000000600082015250565b7f45524332303a2064656372656173656420616c6c6f77616e63652062656c6f7760008201527f207a65726f000000000000000000000000000000000000000000000000000000602082015250565b7f45524332303a206d696e7420746f20746865207a65726f206164647265737300600082015250565b61194f81611525565b811461195a57600080fd5b50565b61196681611563565b811461197157600080fd5b5056fea26469706673582212201067f9ccc460e5a7a658546c11a1afcd1f5f61c80bd7fcdc7b698ce61806ae1d64736f6c63430008070033",
  "devdoc": {
    "kind": "dev",
    "methods": {
      "allowance(address,address)": {
        "details": "See {IERC20-allowance}."
      },
      "approve(address,uint256)": {
        "details": "See {IERC20-approve}. NOTE: If `amount` is the maximum `uint256`, the allowance is not updated on `transferFrom`. This is semantically equivalent to an infinite approval. Requirements: - `spender` cannot be the zero address."
      },
      "balanceOf(address)": {
        "details": "See {IERC20-balanceOf}."
      },
      "decimals()": {
        "details": "Returns the number of decimals used to get its user representation. For example, if `decimals` equals `2`, a balance of `505` tokens should be displayed to a user as `5.05` (`505 / 10 ** 2`). Tokens usually opt for a value of 18, imitating the relationship between Ether and Wei. This is the value {ERC20} uses, unless this function is overridden; NOTE: This information is only used for _display_ purposes: it in no way affects any of the arithmetic of the contract, including {IERC20-balanceOf} and {IERC20-transfer}."
      },
      "decreaseAllowance(address,uint256)": {
        "details": "Atomically decreases the allowance granted to `spender` by the caller. This is an alternative to {approve} that can be used as a mitigation for problems described in {IERC20-approve}. Emits an {Approval} event indicating the updated allowance. Requirements: - `spender` cannot be the zero address. - `spender` must have allowance for the caller of at least `subtractedValue`."
      },
      "increaseAllowance(address,uint256)": {
        "details": "Atomically increases the allowance granted to `spender` by the caller. This is an alternative to {approve} that can be used as a mitigation for problems described in {IERC20-approve}. Emits an {Approval} event indicating the updated allowance. Requirements: - `spender` cannot be the zero address."
      },
      "name()": {
        "details": "Returns the name of the token."
      },
      "symbol()": {
        "details": "Returns the symbol of the token, usually a shorter version of the name."
      },
      "totalSupply()": {
        "details": "See {IERC20-totalSupply}."
      },
      "transfer(address,uint256)": {
        "details": "See {IERC20-transfer}. Requirements: - `to` cannot be the zero address. - the caller must have a balance of at least `amount`."
      },
      "transferFrom(address,address,uint256)": {
        "details": "See {IERC20-transferFrom}. Emits an {Approval} event indicating the updated allowance. This is not required by the EIP. See the note at the beginning of {ERC20}. NOTE: Does not update the allowance if the current allowance is the maximum `uint256`. Requirements: - `from` and `to` cannot be the zero address. - `from` must have a balance of at least `amount`. - the caller must have allowance for ``from``'s tokens of at least `amount`."
      }
    },
    "version": 1
  },
  "userdoc": {
    "kind": "user",
    "methods": {},
    "version": 1
  },
  "storageLayout": {
    "storage": [
      {
        "astId": 15,
        "contract": "contracts/Tornado.sol:Tornado",
        "label": "_balances",
        "offset": 0,
        "slot": "0",
        "type": "t_mapping(t_address,t_uint256)"
      },
      {
        "astId": 21,
        "contract": "contracts/Tornado.sol:Tornado",
        "label": "_allowances",
        "offset": 0,
        "slot": "1",
        "type": "t_mapping(t_address,t_mapping(t_address,t_uint256))"
      },
      {
        "astId": 23,
        "contract": "contracts/Tornado.sol:Tornado",
        "label": "_totalSupply",
        "offset": 0,
        "slot": "2",
        "type": "t_uint256"
      },
      {
        "astId": 25,
        "contract": "contracts/Tornado.sol:Tornado",
        "label": "_name",
        "offset": 0,
        "slot": "3",
        "type": "t_string_storage"
      },
      {
        "astId": 27,
        "contract": "contracts/Tornado.sol:Tornado",
        "label": "_symbol",
        "offset": 0,
        "slot": "4",
        "type": "t_string_storage"
      },
      {
        "astId": 719,
        "contract": "contracts/Tornado.sol:Tornado",
        "label": "addressLockedTokens",
        "offset": 0,
        "slot": "5",
        "type": "t_mapping(t_address,t_uint256)"
      },
      {
        "astId": 721,
        "contract": "contracts/Tornado.sol:Tornado",
        "label": "owner",
        "offset": 0,
        "slot": "6",
        "type": "t_address"
      }
    ],
    "types": {
      "t_address": {
        "encoding": "inplace",
        "label": "address",
        "numberOfBytes": "20"
      },
      "t_mapping(t_address,t_mapping(t_address,t_uint256))": {
        "encoding": "mapping",
        "key": "t_address",
        "label": "mapping(address => mapping(address => uint256))",
        "numberOfBytes": "32",
        "value": "t_mapping(t_address,t_uint256)"
      },
      "t_mapping(t_address,t_uint256)": {
        "encoding": "mapping",
        "key": "t_address",
        "label": "mapping(address => uint256)",
        "numberOfBytes": "32",
        "value": "t_uint256"
      },
      "t_string_storage": {
        "encoding": "bytes",
        "label": "string",
        "numberOfBytes": "32"
      },
      "t_uint256": {
        "encoding": "inplace",
        "label": "uint256",
        "numberOfBytes": "32"
      }
    }
  }
}